:020000040800F2
:1000000000280020690D0008D5090008DB09000858
:10001000E1090008E7090008ED09000800000000F8
:10002000000000000000000000000000F3090008CC
:10003000FF090008000000000B0A0008170A00086A
:10004000B10D0008B10D0008B10D0008B10D000898
:10005000B10D0008B10D0008B10D0008B10D000888
:10006000B10D0008B10D0008B10D0008B10D000878
:10007000B10D0008B10D0008B10D0008B10D000868
:10008000B10D0008B10D0008B10D0008B10D000858
:10009000B10D0008B10D0008B10D0008B10D000848
:1000A000B10D0008B10D0008B10D0008B10D000838
:1000B000250A0008B10D000800000000B10D00087D
:1000C000B10D00080000000000000000B10D0008A4
:1000D00000000000B10D0008B10D00080000000094
:1000E000B10D0008B10D0008B10D000800000000BE
:1000F0000000000000000000000000000000000000
:0C01000000000000000000005FF808F1A3
:10010C0010B5054C237833B9044B13B10448AFF345
:10011C0000800123237010BDA4000020000000000B
:10012C000C24000808B5034B1BB103490348AFF37B
:10013C00008008BD00000000A80000200C2400086E
:10014C0080B582B000AF00237B607DE0434A7B68C2
:10015C0013441B78032B6DD801A252F823F000BF77
:10016C007D010008BD01000815020008E901000826
:10017C00786800F0D1FC7B68002B0CD1374A7B6887
:10018C00134401221A7000F0BFFD0346194678682B
:10019C0000F030FB55E0314A7B68134403221A709F
:1001AC0000F0CEFD03461946786800F023FB48E0CA
:1001BC00786800F0E9FC2A4A7B6852F82330012B5E
:1001CC003AD100F0BDFD03461946786800F012FBE9
:1001DC00224A7B68134403221A702DE0786800F0E1
:1001EC0043FD1F4A7B6852F82330012B26D100F0C7
:1001FC0099FD03461946786800F0FCFA174A7B68AB
:10020C00134402221A7019E0786800F0F5FC144AC5
:10021C007B6852F82330012B12D100F075FD034698
:10022C001946786800F0E6FA0C4A7B681344012200
:10023C001A7005E000BF04E000BF02E000BF00E060
:10024C0000BF7B6801337B607B68012B7FF77EAF3F
:10025C0000BF00BF0837BD4680BD00BFC4000020F2
:10026C00E800002080B500AF274B1B78022B28D06C
:10027C00022B44DC002B02D0012B07D03FE00A20DC
:10028C0000F0D8FA204B01221A703BE0FFF758FF20
:10029C0000F014FA00F080FA002000F025F9034673
:1002AC00002B2ED00A2000F0C5FA174B02221A7030
:1002BC0000F094FA002000F02FFC012000F02CFC40
:1002CC001FE0124B1B68012B05D14FF4FA7000F0A4
:1002DC00B1FA00F001FD002000F006F90346002BF6
:1002EC000DD00A2000F0A6FA074B01221A7000F07C
:1002FC0075FA002000F010FC012000F00DFC00BF8E
:10030C0000E000BF00BF80BDC0000020FC0000204A
:10031C0080B586B000AF07F1080300221A605A605E
:10032C009A60DA60284B9B69274A43F00403936177
:10033C00254B9B6903F004037B607B68224B9B6914
:10034C00214A43F0080393611F4B9B6903F0080398
:10035C003B603B68002240F6DE711C4801F027F838
:10036C0000224FF4FE611A4801F021F840F6DE73CA
:10037C00BB600123FB6000233B6102237B6107F11F
:10038C0008031946114800F07FFE0723BB600023C9
:10039C00FB6000233B6107F1080319460C4800F091
:1003AC0073FE4FF4FE63BB600123FB6000233B61D3
:1003BC0002237B6107F108031946054800F064FE2F
:1003CC0000BF1837BD4680BD001002400008014038
:1003DC00000C014080B582B000AF00237B606BE065
:1003EC00394A7B6813441978384A7B6813440A46A7
:1003FC001A70374A7B6813441978334A7B68134464
:10040C000A461A70334A7B6852F8232032497B68BB
:10041C0031F813301946104600F0B2FF0346194666
:10042C002B4A7B6813440A461A70284A7B6813448B
:10043C001A7825497B680B441B789A4209D0224ACA
:10044C007B6813441A7822497B680B441B789A42C8
:10045C0008D11D4A7B6813441978204A7B681344E1
:10046C000A461A701D4A7B6813441B78002B16D160
:10047C001B4A7B6832F81330632B0AD8184A7B6806
:10048C0032F81330013399B2154A7B6822F81310F5
:10049C000FE0144A7B68134401221A7009E0104AD9
:1004AC007B68002122F813100E4A7B68134400224B
:1004BC001A707B6801337B607B68022B90DD00BF78
:1004CC0000BF0837BD4680BD1C0000202000002066
:1004DC0018000020000000200C0000201400002058
:1004EC00CC000020C800002080B483B000AF78603E
:1004FC007B68022B01DD002308E0074A7B6813446C
:10050C001B78002B0CBF01230023DBB218460C37E1
:10051C00BD4680BC704700BF1400002080B500AF02
:10052C0000F042FC00F00CF8FFF7F2FE00F084FA49
:10053C00024801F0A5FBFFF795FEFCE71001002037
:10054C0080B590B000AF07F118032822002118469F
:10055C0001F04EFF3B1D00221A605A609A60DA606F
:10056C001A610223BB610123BB621023FB620023CF
:10057C007B6307F11803184600F04AFF0346002B73
:10058C0001D000F029F80F237B600023BB6000230F
:10059C00FB6000233B6100237B613B1D002118465F
:1005AC0001F0B8F90346002B01D000F015F800BF9C
:1005BC004037BD4680BD80B582B000AF78607B68A7
:1005CC001B68B3F1804F03D1FFF704FF00F05EF915
:1005DC0000BF0837BD4680BD80B400AF72B600BF07
:1005EC00FEE7000080B584B000AF78607B68002B1C
:1005FC0023DB7B68092B20DC0023FB6019E0114A0C
:10060C00FB6852F82300104AFB6832F813100F4AAB
:10061C007B6813441B781A46FB6842FA03F3DBB27F
:10062C0003F00103DBB21A4600F0C1FEFB68013394
:10063C00FB60FB68062BE2DD00E000BF1037BD4617
:10064C0080BD00BF2400002040000020342400089E
:10065C0080B584B000AF78607B68002B23DB7B68AF
:10066C00032B20DC0023FB6019E0114AFB6852F8D5
:10067C002300104AFB6832F813100F4A7B681344AE
:10068C001B781A46FB6842FA03F3DBB203F0010352
:10069C00DBB21A4600F08BFEFB680133FB60FB6893
:1006AC00032BE2DD00E000BF1037BD4680BD00BF6C
:1006BC0050000020600000204024000880B500AFEE
:1006CC00002000F0D3F80346214A82FB031292115A
:1006DC00DB17D31A1F4A1360002000F0C7F803463B
:1006EC001D4A82FB03125211DB17D11A1B4B83FBE1
:1006FC0001239A10CB17D21A13469B0013445B00AC
:10070C00CA1A144B5A60012000F0B0F80346104A84
:10071C0082FB03129211DB17D31A0E4A936001204D
:10072C0000F0A4F803460C4A82FB03125211DB17AB
:10073C00D11A0A4B83FB01239A10CB17D21A1346FA
:10074C009B0013445B00CA1A024BDA6000BF80BDE9
:10075C00D34D6210D40000201F85EB51676666668E
:10076C0080B582B000AF78607B68002B0DDB7B68B6
:10077C00032B0ADC7868FFF76BFF064A7B6852F89C
:10078C0023301846FFF72EFF00E000BF0837BD46A8
:10079C0080BD00BFD400002080B500AF0D4B1B689E
:1007AC00012B15D1FA2000F045F80B4B1B685A1C95
:1007BC0009490A601846FFF7D3FF074B1B685A42DA
:1007CC0003F0030302F0030258BF5342024A1360C2
:1007DC0000BF80BDFC000020E400002080B400AF0E
:1007EC00034B00221A6000BFBD4680BC704700BF9F
:1007FC00E400002080B483B000AF786039603B68BF
:10080C00094A82FB03129210DB17D21A07497B6844
:10081C0041F82320064A7B68002142F8231000BFD0
:10082C000C37BD4680BC704767666666F0000020DA
:10083C00E800002080B483B000AF78607B68084A81
:10084C0082FB03129210DB17D31A064A1360064B75
:10085C0000221A6000BF0C37BD4680BC704700BF39
:10086C0067666666F8000020FC00002080B483B048
:10087C0000AF7860044A7B6852F8233018460C3776
:10088C00BD4680BC704700BFF000002080B483B030
:10089C0000AF00237B601CE02A4A7B6852F82330AF
:1008AC00002B13DD274A7B6852F823305A1E25494A
:1008BC007B6841F82320234A7B6852F82330002BB5
:1008CC0004DC214A7B68012142F823107B68013348
:1008DC007B607B68012BDFDD1C4B1B68002B0BDD69
:1008EC001A4B1B68013B194A1360184B1B68002BF1
:1008FC0002DC174B01221A60164B1B68002B0BDD18
:10090C00144B1B68013B134A1360124B1B68002BE2
:10091C0002DC114B01221A60104B1B68002B0BDD03
:10092C000E4B1B68013B0D4A13600C4B1B68002BD4
:10093C0002DC0B4B01221A6000BF0C37BD4680BC99
:10094C00704700BFF0000020E8000020F8000020F5
:10095C00FC00002000010020040100200801002000
:10096C000C01002080B485B000AF154B9B69144A74
:10097C0043F001039361124B9B6903F00103BB60CD
:10098C00BB680F4BDB690E4A43F08053D3610C4BB1
:10099C00DB6903F080537B607B680A4B5B68FB6010
:1009AC00FB6823F0E063FB60FB6843F00073FB60C3
:1009BC00044AFB68536000BF1437BD4680BC7047C7
:1009CC00001002400000014080B400AFFEE780B48C
:1009DC0000AFFEE780B400AFFEE780B400AFFEE7E7
:1009EC0080B400AFFEE780B400AF00BFBD4680BC52
:1009FC00704780B400AF00BFBD4680BC704780B468
:100A0C0000AF00BFBD4680BC704780B500AF00F0A2
:100A1C0011FA00BF80BD000080B500AF024801F0A4
:100A2C007BF900BF80BD00BF1001002080B400AF77
:100A3C0000BFBD4680BC704780B586B000AF07F1E3
:100A4C00080300221A605A609A60DA603B46002262
:100A5C001A605A601D4B4FF080421A601B4B41F6D6
:100A6C003F725A60194B00229A60184B0922DA60C7
:100A7C00164B00221A61154B00229A61134801F0A3
:100A8C00AFF80346002B01D0FFF7A6FD4FF48053BF
:100A9C00BB6007F1080319460C4801F045FA034600
:100AAC00002B01D0FFF798FD00233B6000237B60F7
:100ABC003B461946054801F00DFC0346002B01D0BE
:100ACC00FFF78AFD00BF1837BD4680BD100100201E
:100ADC0080B584B000AF78607B681B68B3F1804F41
:100AEC0013D10C4BDB690B4A43F00103D361094B67
:100AFC00DB6903F00103FB60FB68002200211C2072
:100B0C0000F08BFA1C2000F0A4FA00BF1037BD4691
:100B1C0080BD00BF0010024080B582B000AF78608D
:100B2C00134A7B6852F82300124A7B6832F8133060
:100B3C000122194600F03BFC0F4A7B6852F8230057
:100B4C000E4A7B6832F813300122194600F02FFC54
:100B5C000B4A7B6852F823000A4A7B6832F8133040
:100B6C000122194600F023FC00BF0837BD4680BDAA
:100B7C006C00002074000020780000208000002011
:100B8C00840000208C00002080B582B000AF78601B
:100B9C00134A7B6852F82300124A7B6832F81330F0
:100BAC000022194600F003FC0F4A7B6852F8230020
:100BBC000E4A7B6832F813300122194600F0F7FB1D
:100BCC000B4A7B6852F823000A4A7B6832F81330D0
:100BDC000122194600F0EBFB00BF0837BD4680BD73
:100BEC006C000020740000207800002080000020A1
:100BFC00840000208C00002080B582B000AF7860AB
:100C0C00134A7B6852F82300124A7B6832F813307F
:100C1C000122194600F0CBFB0F4A7B6852F82300E7
:100C2C000E4A7B6832F813300022194600F0BFFBE5
:100C3C000B4A7B6852F823000A4A7B6832F813305F
:100C4C000122194600F0B3FB00BF0837BD4680BD3A
:100C5C006C00002074000020780000208000002030
:100C6C00840000208C00002080B582B000AF78603A
:100C7C00134A7B6852F82300124A7B6832F813300F
:100C8C000122194600F093FB0F4A7B6852F82300AF
:100C9C000E4A7B6832F813300122194600F087FBAC
:100CAC000B4A7B6852F823000A4A7B6832F81330EF
:100CBC000022194600F07BFB00BF0837BD4680BD03
:100CCC006C000020740000207800002080000020C0
:100CDC00840000208C00002080B500AF084B1B68FE
:100CEC00084A12881146184600F079FB044B5B68E1
:100CFC00044A52881146184600F071FB00BF80BDB3
:100D0C006C0000207400002080B400AF044B1B6802
:100D1C004FF47A7202FB03F31846BD4680BC704751
:100D2C009000002080B400AF044B1B684FF47A7223
:100D3C0002FB03F31846BD4680BC704794000020AC
:100D4C0080B400AF044B1B684FF47A7202FB03F3C0
:100D5C001846BD4680BC7047980000200C480D49D1
:100D6C000D4A002302E0D458C4500433C4188C42FA
:100D7C00F9D30A4A0A4C002301E013600432A24260
:100D8C00FBD3FFF753FE01F00FFBFFF7C7FB7047D8
:100D9C0000000020A40000205C240008A400002017
:100DAC005C010020FEE7000080B500AF084B1B681B
:100DBC00074A43F010031360032000F023F90F20BF
:100DCC0000F008F8FFF7CEFD0023184680BD00BFE9
:100DDC000020024080B582B000AF7860124B1A68D8
:100DEC00124B1B7819464FF47A73B3FBF1F3B2FB39
:100DFC00F3F3184600F03BF90346002B01D0012316
:100E0C000EE07B680F2B0AD8002279684FF0FF3078
:100E1C0000F003F9064A7B681360002300E001230D
:100E2C0018460837BD4680BD68000020A000002091
:100E3C009C00002080B400AF054B1B781A46054B74
:100E4C001B681344034A136000BFBD4680BC704747
:100E5C00A00000205801002080B400AF024B1B689A
:100E6C001846BD4680BC70475801002080B485B040
:100E7C0000AF78607B6803F00703FB600C4BDB680A
:100E8C00BB60BA684FF6FF031340BB60FB681A02E5
:100E9C00BB68134343F0BF6343F40033BB60044AA5
:100EAC00BB68D36000BF1437BD4680BC704700BF21
:100EBC0000ED00E080B400AF044BDB681B0A03F0CC
:100ECC0007031846BD4680BC704700BF00ED00E02C
:100EDC0080B483B000AF0346FB7197F90730002B49
:100EEC000BDBFB7903F01F02064997F907305B090E
:100EFC00012000FA02F241F8232000BF0C37BD4656
:100F0C0080BC704700E100E080B483B000AF0346C2
:100F1C003960FB7197F90730002B0ADB3B68DAB2BA
:100F2C000C4997F907301201D2B20B4483F8002315
:100F3C000AE03B68DAB20849FB7903F00F03043B83
:100F4C001201D2B20B441A7600BF0C37BD4680BCDE
:100F5C00704700BF00E100E000ED00E080B489B014
:100F6C0000AFF860B9607A60FB6803F00703FB61BF
:100F7C00FB69C3F10703042B28BF0423BB61FB6986
:100F8C000433062B02D9FB69033B00E000237B6191
:100F9C004FF0FF32BB6902FA03F3DA43BB681A4025
:100FAC007B699A404FF0FF317B6901FA03F3D94317
:100FBC007B680B40134318462437BD4680BC7047F2
:100FCC0080B582B000AF78607B68013BB3F1807F65
:100FDC0001D301230FE00A4A7B68013B53600F21C8
:100FEC004FF0FF30FFF790FF054B00229A60044B47
:100FFC0007221A60002318460837BD4680BD00BF83
:10100C0010E000E080B582B000AF78607868FFF740
:10101C002DFF00BF0837BD4680BD80B586B000AF40
:10102C000346B9607A60FB7300237B61FFF742FFD4
:10103C0078617A68B9687869FFF790FF024697F98A
:10104C000F3011461846FFF75FFF00BF1837BD463B
:10105C0080BD80B582B000AF0346FB7197F90730B5
:10106C001846FFF735FF00BF0837BD4680BD80B579
:10107C0082B000AF78607868FFF7A2FF034618468D
:10108C000837BD4680BD000080B48BB000AF7860DF
:10109C00396000237B6200233B6261E101227B6AA1
:1010AC0002FA03F3FB613B681B68FA691340BB61EE
:1010BC00BA69FB699A4240F050813B685B68974A79
:1010CC0093425ED0954A934275D8954A934258D034
:1010DC00934A93426FD8934A934252D0914A934287
:1010EC0069D8914A93424CD08F4A934263D88F4A25
:1010FC00934246D08D4A93425DD8122B2AD8122B9C
:10110C0059D801A252F823F08F1100086911000878
:10111C007B110008BD110008C3110008C3110008A1
:10112C00C3110008C3110008C3110008C311000843
:10113C00C3110008C3110008C3110008C311000833
:10114C00C3110008C3110008C31100087111000875
:10115C0085110008764A934213D02CE03B68DB687B
:10116C003B6229E03B68DB6804333B6224E03B686C
:10117C00DB6808333B621FE03B68DB680C333B6287
:10118C001AE03B689B68002B02D104233B6213E0FE
:10119C003B689B68012B05D108233B627B68FA698D
:1011AC001A6109E008233B627B68FA695A6103E023
:1011BC0000233B6200E000BFBB69FF2B01D87B68BA
:1011CC0001E07B6804337B61BB69FF2B02D87B6A2F
:1011DC009B0002E07B6A083B9B003B617B691A68C1
:1011EC000F213B6901FA03F3DB431A40396A3B696F
:1011FC0001FA03F31A437B691A603B685B6803F0DE
:10120C008053002B00F0A9804A4B9B69494A43F05C
:10121C0001039361474B9B6903F00103BB60BB68FF
:10122C00454A7B6A9B08023352F82330FB607B6A89
:10123C0003F003039B000F2202FA03F3DB43FA686B
:10124C001340FB607B683D4A93420DD07B683C4A5F
:10125C00934207D07B683B4A934201D1022304E0BE
:10126C00032302E0012300E000237A6A02F0030268
:10127C0092009340FA681343FB602F497B6A9B08EA
:10128C000233FA6841F823203B685B6803F480332F
:10129C00002B06D02C4B1A682B49BB6913430B60EF
:1012AC0006E0294B1A68BB69DB43274913400B60E6
:1012BC003B685B6803F40033002B06D0224B5A6862
:1012CC002149BB6913434B6006E01F4B5A68BB694D
:1012DC00DB431D4913404B603B685B6803F4801390
:1012EC00002B06D0184B9A681749BB6913438B60C7
:1012FC0006E0154B9A68BB69DB43134913408B60BE
:10130C003B685B6803F40013002B1FD00E4BDA68AC
:10131C000D49BB691343CB601FE000BF00003210C6
:10132C0000003110000022100000211000001210EB
:10133C0000001110001002400000014000080140A4
:10134C00000C014000100140000401400B4BDA6816
:10135C00BB69DB4309491340CB607B6A01337B6279
:10136C003B681A687B6A22FA03F3002B7FF496AE73
:10137C0000BF00BF2C37BD4680BC70470004014045
:10138C0080B485B000AF78600B467B807B689A6830
:10139C007B881340002B02D00123FB7301E0002358
:1013AC00FB73FB7B18461437BD4680BC704780B47A
:1013BC0083B000AF78600B467B8013467B707B78E4
:1013CC00002B03D07A887B681A6103E07B881A04AF
:1013DC007B681A6100BF0C37BD4680BC704780B477
:1013EC0085B000AF78600B467B807B68DB68FB6068
:1013FC007A88FB6813401A04FB68D9437B880B403E
:10140C001A437B681A6100BF1437BD4680BC704715
:10141C0080B586B000AF78607B68002B01D10123CA
:10142C0072E27B681B6803F00103002B00F08780DD
:10143C00924B5B6803F00C03042B0CD08F4B5B6856
:10144C0003F00C03082B12D18C4B5B6803F4803334
:10145C00B3F5803F0BD1894B1B6803F40033002B91
:10146C006CD07B685B68002B68D101234CE27B68F5
:10147C005B68B3F5803F06D1804B1B687F4A43F411
:10148C00803313602EE07B685B68002B0CD17B4BA8
:10149C001B687A4A23F480331360784B1B68774AB5
:1014AC0023F4802313601DE07B685B68B3F5A02FE9
:1014BC000CD1724B1B68714A43F4802313606F4B41
:1014CC001B686E4A43F4803313600BE06B4B1B6854
:1014DC006A4A23F480331360684B1B68674A23F411
:1014EC00802313607B685B68002B13D0FFF7B4FC80
:1014FC00386108E0FFF7B0FC02463B69D31A642B55
:10150C0001D9032300E25D4B1B6803F40033002B6D
:10151C00F0D014E0FFF7A0FC386108E0FFF79CFC6A
:10152C0002463B69D31A642B01D90323ECE1534BDC
:10153C001B6803F40033002BF0D100E000BF7B6884
:10154C001B6803F00203002B63D04C4B5B6803F069
:10155C000C03002B0BD0494B5B6803F00C03082BDE
:10156C001CD1464B5B6803F48033002B16D1434BE4
:10157C001B6803F00203002B05D07B681B69012B51
:10158C0001D00123C0E13D4B1B6823F0F8027B68BE
:10159C005B69DB00394913430B603AE07B681B69DC
:1015AC00002B20D0364B01221A60FFF755FC386116
:1015BC0008E0FFF751FC02463B69D31A022B01D914
:1015CC000323A1E12D4B1B6803F00203002BF0D089
:1015DC002A4B1B6823F0F8027B685B69DB00274908
:1015EC0013430B6015E0264B00221A60FFF734FC06
:1015FC00386108E0FFF730FC02463B69D31A022B36
:10160C0001D9032380E11D4B1B6803F00203002B5F
:10161C00F0D17B681B6803F00803002B3AD07B6881
:10162C009B69002B19D0174B01221A60FFF714FC91
:10163C00386108E0FFF710FC02463B69D31A022B15
:10164C0001D9032360E10D4B5B6A03F00203002B0D
:10165C00F0D0012000F0A6FA1CE00A4B00221A6020
:10166C00FFF7FAFB38610FE0FFF7F6FB02463B6928
:10167C00D31A022B08D9032346E100BF0010024005
:10168C000000424280044242924B5B6A03F0020328
:10169C00002BE9D17B681B6803F00403002B00F0DE
:1016AC00A6800023FB758B4BDB6903F08053002B6A
:1016BC000DD1884BDB69874A43F08053D361854B4E
:1016CC00DB6903F08053BB60BB680123FB75824B65
:1016DC001B6803F48073002B18D17F4B1B687E4A68
:1016EC0043F480731360FFF7B7FB386108E0FFF732
:1016FC00B3FB02463B69D31A642B01D9032303E1E4
:10170C00754B1B6803F48073002BF0D07B68DB688F
:10171C00012B06D16F4B1B6A6E4A43F00103136217
:10172C002DE07B68DB68002B0CD16A4B1B6A694A85
:10173C0023F001031362674B1B6A664A23F0040310
:10174C0013621CE07B68DB68052B0CD1614B1B6AB8
:10175C00604A43F0040313625E4B1B6A5D4A43F01C
:10176C00010313620BE05B4B1B6A5A4A23F0010323
:10177C001362584B1B6A574A23F0040313627B68AD
:10178C00DB68002B15D0FFF767FB38610AE0FFF729
:10179C0063FB02463B69D31A41F28832934201D96A
:1017AC000323B1E04B4B1B6A03F00203002BEED07A
:1017BC0014E0FFF751FB38610AE0FFF74DFB0246DE
:1017CC003B69D31A41F28832934201D903239BE03F
:1017DC00404B1B6A03F00203002BEED1FB7D012B67
:1017EC0005D13C4BDB693B4A23F08053D3617B68CA
:1017FC00DB69002B00F08780364B5B6803F00C0331
:10180C00082B61D07B68DB69022B46D1334B00225D
:10181C001A60FFF721FB386108E0FFF71DFB024659
:10182C003B69D31A022B01D903236DE0294B1B68AA
:10183C0003F00073002BF0D17B681B6AB3F5803F7B
:10184C0008D1244B5B6823F400327B689B682149E8
:10185C0013434B601F4B5B6823F474127B68196A4B
:10186C007B685B6A0B431B4913434B601B4B012288
:10187C001A60FFF7F1FA386108E0FFF7EDFA02465B
:10188C003B69D31A022B01D903233DE0114B1B6892
:10189C0003F00073002BF0D035E0104B00221A60DF
:1018AC00FFF7DAFA386108E0FFF7D6FA02463B692F
:1018BC00D31A022B01D9032326E0064B1B6803F035
:1018CC000073002BF0D11EE07B68DB69012B07D184
:1018DC00012319E0001002400070004060004242F9
:1018EC000B4B5B68FB60FB6803F480327B681B6A04
:1018FC009A4206D1FB6803F470127B685B6A9A42C9
:10190C0001D0012300E0002318461837BD4680BDE6
:10191C000010024080B584B000AF786039607B68FD
:10192C00002B01D10123D0E06A4B1B6803F00703A5
:10193C003A689A4210D9674B1B6823F00702654935
:10194C003B6813430B60634B1B6803F007033A6857
:10195C009A4201D00123B8E07B681B6803F00203B4
:10196C00002B20D07B681B6803F00403002B05D0F0
:10197C00594B5B68584A43F4E06353607B681B68BF
:10198C0003F00803002B05D0534B5B68524A43F419
:10199C0060535360504B5B6823F0F0027B689B688C
:1019AC004D4913434B607B681B6803F00103002B0C
:1019BC0040D07B685B68012B07D1474B1B6803F455
:1019CC000033002B15D101237FE07B685B68022B71
:1019DC0007D1414B1B6803F00073002B09D1012385
:1019EC0073E03D4B1B6803F00203002B01D1012374
:1019FC006BE0394B5B6823F003027B685B6836490C
:101A0C0013434B60FFF728FAF8600AE0FFF724FA5B
:101A1C000246FB68D31A41F28832934201D9032360
:101A2C0053E02D4B5B6803F00C027B685B689B00FA
:101A3C009A42EBD1274B1B6803F007033A689A4292
:101A4C0010D2244B1B6823F0070222493B68134336
:101A5C000B60204B1B6803F007033A689A4201D0D5
:101A6C00012332E07B681B6803F00403002B08D0D1
:101A7C00194B5B6823F4E0627B68DB6816491343FF
:101A8C004B607B681B6803F00803002B09D0124BDA
:101A9C005B6823F460527B681B69DB000E491343BF
:101AAC004B6000F021F802460B4B5B681B0903F0FE
:101ABC000F030A49CB5C22FA03F3094A1360094B62
:101ACC001B681846FFF786F9002318461037BD46E9
:101ADC0080BD00BF002002400010024044240008DA
:101AEC00680000209C00002090B48AB000AF294B05
:101AFC003C1D0FCB84E80F0040F201233B800023F8
:101B0C00FB610023BB6100237B6200237B6100230C
:101B1C003B62214B5B68FB61FB6903F00C03042BFC
:101B2C0002D0082B03D02BE01C4B3B622BE0FB6953
:101B3C009B0C03F00F0328333B4413F8243C7B61CC
:101B4C00FB6903F48033002B12D0134B5B685B0CE6
:101B5C0003F0010328333B4413F8283CBB617B6939
:101B6C000E4A03FB02F2BB69B2FBF3F37B6204E0A7
:101B7C007B690B4A02FB03F37B627B6A3B6202E0EC
:101B8C00064B3B6200BF3B6A18462837BD4690BCEB
:101B9C00704700BF242400080010024000127A0095
:101BAC0000093D0080B485B000AF78600A4B1B681B
:101BBC000A4AA2FB03235B0A7A6802FB03F3FB606D
:101BCC0000BFFB685A1EFA60002BF9D100BF00BFA2
:101BDC001437BD4680BC704768000020D34D62109E
:101BEC0080B582B000AF78607B68002B01D10123F7
:101BFC0041E07B6893F83D30DBB2002B06D17B686B
:101C0C00002283F83C207868FEF762FF7B68022292
:101C1C0083F83D207B681A687B68043319461046AC
:101C2C0000F06AFA7B68012283F846207B68012267
:101C3C0083F83E207B68012283F83F207B680122D9
:101C4C0083F840207B68012283F841207B680122C5
:101C5C0083F842207B68012283F843207B680122B1
:101C6C0083F844207B68012283F845207B6801229D
:101C7C0083F83D20002318460837BD4680BD000080
:101C8C0080B485B000AF78607B6893F83D30DBB2F0
:101C9C00012B01D0012335E07B68022283F83D2023
:101CAC007B681B68DA687B681B6842F00102DA60AB
:101CBC007B681B68164A934209D07B681B68B3F19A
:101CCC00804F04D07B681B68124A934211D17B6809
:101CDC001B689B6803F00703FB60FB68062B10D0A6
:101CEC007B681B681A687B681B6842F001021A60EB
:101CFC0007E07B681B681A687B681B6842F001026E
:101D0C001A60002318461437BD4680BC704700BFCC
:101D1C00002C01400004004080B582B000AF786018
:101D2C007B681B681B6903F00203022B22D17B68C2
:101D3C001B68DB6803F00203022B1BD17B681B685A
:101D4C006FF002021A617B6801221A777B681B68AC
:101D5C009B6903F00303002B03D0786800F0B1F902
:101D6C0005E0786800F0A4F9786800F0B3F97B68B6
:101D7C0000221A777B681B681B6903F00403042B91
:101D8C0022D17B681B68DB6803F00403042B1BD196
:101D9C007B681B686FF004021A617B6802221A7759
:101DAC007B681B689B6903F44073002B03D0786835
:101DBC0000F087F905E0786800F07AF9786800F0AF
:101DCC0089F97B6800221A777B681B681B6903F012
:101DDC000803082B22D17B681B68DB6803F008031F
:101DEC00082B1BD17B681B686FF008021A617B689B
:101DFC0004221A777B681B68DB6903F00303002B52
:101E0C0003D0786800F05DF905E0786800F050F9CF
:101E1C00786800F05FF97B6800221A777B681B6892
:101E2C001B6903F01003102B22D17B681B68DB6845
:101E3C0003F01003102B1BD17B681B686FF0100292
:101E4C001A617B6808221A777B681B68DB6903F4CC
:101E5C004073002B03D0786800F033F905E0786804
:101E6C0000F026F9786800F035F97B6800221A77C3
:101E7C007B681B681B6903F00103012B0ED17B6887
:101E8C001B68DB6803F00103012B07D17B681B681F
:101E9C006FF001021A617868FEF78DFB7B681B6896
:101EAC001B6903F08003802B0ED17B681B68DB68F9
:101EBC0003F08003802B07D17B681B686FF08002D6
:101ECC001A61786800F067FA7B681B681B6903F07D
:101EDC004003402B0ED17B681B68DB6803F040038A
:101EEC00402B07D17B681B686FF040021A61786841
:101EFC0000F0F9F87B681B681B6903F02003202BAA
:101F0C000ED17B681B68DB6803F02003202B07D104
:101F1C007B681B686FF020021A61786800F032FA57
:101F2C0000BF0837BD4680BD80B584B000AF786077
:101F3C0039607B6893F83C30012B01D10223B3E06C
:101F4C007B68012283F83C207B68022283F83D20C9
:101F5C007B681B689B68FB60FB6823F07703FB6066
:101F6C00FB6823F47F43FB607B681B68FA689A600C
:101F7C003B681B68B3F5005F3ED0B3F5005F00F221
:101F8C008780B3F5805F00F08580B3F5805F7FD8E4
:101F9C00702B1AD0702B7BD8602B50D0602B77D83D
:101FAC00502B3CD0502B73D8402B58D0402B6FD893
:101FBC00302B64D0302B6BD8202B60D0202B67D8E3
:101FCC00002B5CD0102B5AD062E07B6818683B6801
:101FDC0099683B685A683B68DB6800F05CF97B6881
:101FEC001B689B68FB60FB6843F07703FB607B68B6
:101FFC001B68FA689A604EE07B6818683B689968C1
:10200C003B685A683B68DB6800F045F97B681B68E5
:10201C009A687B681B6842F480429A603BE07B685C
:10202C0018683B6859683B68DB681A4600F0BCF8D6
:10203C007B681B685021184600F013F92BE07B6875
:10204C0018683B6859683B68DB681A4600F0DAF898
:10205C007B681B686021184600F003F91BE07B6865
:10206C0018683B6859683B68DB681A4600F09CF8B6
:10207C007B681B684021184600F0F3F80BE07B6886
:10208C001A683B681B681946104600F0EAF802E033
:10209C0000BF00E000BF7B68012283F83D207B6815
:1020AC00002283F83C20002318461037BD4680BD23
:1020BC0080B483B000AF786000BF0C37BD4680BCE5
:1020CC00704780B483B000AF786000BF0C37BD465A
:1020DC0080BC704780B483B000AF786000BF0C3711
:1020EC00BD4680BC704780B483B000AF786000BF41
:1020FC000C37BD4680BC704780B485B000AF7860AB
:10210C0039607B681B68FB607B68254A934207D06B
:10211C007B68B3F1804F03D07B68224A934208D18D
:10212C00FB6823F07003FB603B685B68FA68134341
:10213C00FB607B681A4A934207D07B68B3F1804FEF
:10214C0003D07B68174A934208D1FB6823F4407391
:10215C00FB603B68DB68FA681343FB60FB6823F0A9
:10216C0080023B685B691343FB607B68FA681A600A
:10217C003B689A687B68DA623B681A687B689A628B
:10218C007B68074A934203D13B681A697B681A63E0
:10219C007B6801225A6100BF1437BD4680BC704772
:1021AC00002C01400004004080B487B000AFF86000
:1021BC00B9607A60FB681B6A7B61FB681B6A23F061
:1021CC000102FB681A62FB689B693B613B6923F067
:1021DC00F0033B617B681B013A6913433B617B69EC
:1021EC0023F00A037B617A69BB6813437B61FB684C
:1021FC003A699A61FB687A691A6200BF1C37BD465E
:10220C0080BC704780B487B000AFF860B9607A606A
:10221C00FB681B6A23F01002FB681A62FB689B695F
:10222C007B61FB681B6A3B617B6923F470437B61B8
:10223C007B681B037A6913437B613B6923F0A00322
:10224C003B61BB681B013A6913433B61FB687A69CC
:10225C009A61FB683A691A6200BF1C37BD4680BCA4
:10226C00704780B485B000AF786039607B689B683C
:10227C00FB60FB6823F07003FB603A68FB68134358
:10228C0043F00703FB607B68FA689A6000BF143761
:10229C00BD4680BC704780B487B000AFF860B960B1
:1022AC007A603B60FB689B687B617B6923F47F43AE
:1022BC007B613B681A027B681A43BB6813437A69DB
:1022CC0013437B61FB687A699A6000BF1C37BD467B
:1022DC0080BC704780B485B000AF786039607B6893
:1022EC0093F83C30012B01D1022341E07B680122A1
:1022FC0083F83C207B68022283F83D207B681B68B6
:10230C005B68FB607B681B689B68BB60FB6823F0A9
:10231C007003FB603B681B68FA681343FB607B68C7
:10232C001B68FA685A607B681B68144A934209D090
:10233C007B681B68B3F1804F04D07B681B68104A24
:10234C0093420CD1BB6823F08003BB603B685B6895
:10235C00BA681343BB607B681B68BA689A607B6879
:10236C00012283F83D207B68002283F83C20002367
:10237C0018461437BD4680BC704700BF002C014086
:10238C000004004080B483B000AF786000BF0C370D
:10239C00BD4680BC704780B483B000AF786000BF8E
:1023AC000C37BD4680BC704770B500260C4D0D4CEB
:1023BC00641BA410A64209D100F022F800260A4D95
:1023CC000A4C641BA410A64205D170BD55F8043B01
:1023DC0098470136EEE755F8043B98470136F2E78B
:1023EC0054240008542400085424000858240008DD
:1023FC0003460244934200D1704703F8011BF9E7EE
:10240C00F8B500BFF8BC08BC9E467047F8B500BFD5
:08241C00F8BC08BC9E467047A5
:1024240002030405060708090A0B0C0D0E0F101011
:102434004079243019120278001000000E0D0B07A9
:102444000000000000000000010203040607080960
:04245400310100084A
:042458000D0100086A
:10245C00000C0140000C0140000C01400100020086
:10246C000400000001010100010101000101010053
:10247C0001010100000C0140000C0140000C014066
:10248C00000C0140000C0140000C0140000C01400C
:10249C001000200040008000000100020004000039
:1024AC0000080140000801400008014000080140FC
:1024BC0002000400080010000024F4000008014091
:1024CC0000080140400000020008014000080140E3
:1024DC0080000004000801400008014000010008D1
:1024EC000F000000030000000A00000010000000B4
:0424FC0001000000DB
:0400000508000D6979
:00000001FF
